{
  "inputs": [],
  "stateMutability": "nonpayable",
  "type": "constructor",
  "contractName": "LendingBorrowing",
  "abi": [
    {
      "anonymous": false,
      "inputs": [
        {
          "indexed": false,
          "internalType": "uint256",
          "name": "loanId",
          "type": "uint256"
        },
        {
          "indexed": false,
          "internalType": "address",
          "name": "lender",
          "type": "address"
        },
        {
          "indexed": false,
          "internalType": "uint256",
          "name": "amount",
          "type": "uint256"
        },
        {
          "indexed": false,
          "internalType": "uint256",
          "name": "interest",
          "type": "uint256"
        }
      ],
      "name": "LoanFunded",
      "type": "event"
    },
    {
      "anonymous": false,
      "inputs": [
        {
          "indexed": false,
          "internalType": "uint256",
          "name": "loanId",
          "type": "uint256"
        },
        {
          "indexed": false,
          "internalType": "address",
          "name": "borrower",
          "type": "address"
        },
        {
          "indexed": false,
          "internalType": "uint256",
          "name": "amount",
          "type": "uint256"
        },
        {
          "indexed": false,
          "internalType": "uint256",
          "name": "interest",
          "type": "uint256"
        }
      ],
      "name": "LoanRepaid",
      "type": "event"
    },
    {
      "anonymous": false,
      "inputs": [
        {
          "indexed": false,
          "internalType": "uint256",
          "name": "loanId",
          "type": "uint256"
        },
        {
          "indexed": false,
          "internalType": "address",
          "name": "borrower",
          "type": "address"
        },
        {
          "indexed": false,
          "internalType": "uint256",
          "name": "amount",
          "type": "uint256"
        },
        {
          "indexed": false,
          "internalType": "uint256",
          "name": "interest",
          "type": "uint256"
        }
      ],
      "name": "LoanRequested",
      "type": "event"
    },
    {
      "inputs": [],
      "name": "loanCounter",
      "outputs": [
        {
          "internalType": "uint256",
          "name": "",
          "type": "uint256"
        }
      ],
      "stateMutability": "view",
      "type": "function",
      "constant": true
    },
    {
      "inputs": [
        {
          "internalType": "uint256",
          "name": "",
          "type": "uint256"
        }
      ],
      "name": "loanRequests",
      "outputs": [
        {
          "internalType": "uint256",
          "name": "loanId",
          "type": "uint256"
        },
        {
          "internalType": "address",
          "name": "borrower",
          "type": "address"
        },
        {
          "internalType": "uint256",
          "name": "amount",
          "type": "uint256"
        },
        {
          "internalType": "uint256",
          "name": "interest",
          "type": "uint256"
        },
        {
          "internalType": "bool",
          "name": "isActive",
          "type": "bool"
        },
        {
          "internalType": "address",
          "name": "lender",
          "type": "address"
        },
        {
          "internalType": "bool",
          "name": "isRepaid",
          "type": "bool"
        }
      ],
      "stateMutability": "view",
      "type": "function",
      "constant": true
    },
    {
      "inputs": [
        {
          "internalType": "uint256",
          "name": "_amount",
          "type": "uint256"
        },
        {
          "internalType": "uint256",
          "name": "_interest",
          "type": "uint256"
        }
      ],
      "name": "requestLoan",
      "outputs": [],
      "stateMutability": "nonpayable",
      "type": "function"
    },
    {
      "inputs": [
        {
          "internalType": "uint256",
          "name": "_loanId",
          "type": "uint256"
        }
      ],
      "name": "fundLoan",
      "outputs": [],
      "stateMutability": "payable",
      "type": "function",
      "payable": true
    },
    {
      "inputs": [
        {
          "internalType": "uint256",
          "name": "_loanId",
          "type": "uint256"
        }
      ],
      "name": "repayLoan",
      "outputs": [],
      "stateMutability": "payable",
      "type": "function",
      "payable": true
    },
    {
      "inputs": [],
      "name": "getActiveLoanRequests",
      "outputs": [
        {
          "components": [
            {
              "internalType": "uint256",
              "name": "loanId",
              "type": "uint256"
            },
            {
              "internalType": "address",
              "name": "borrower",
              "type": "address"
            },
            {
              "internalType": "uint256",
              "name": "amount",
              "type": "uint256"
            },
            {
              "internalType": "uint256",
              "name": "interest",
              "type": "uint256"
            },
            {
              "internalType": "bool",
              "name": "isActive",
              "type": "bool"
            },
            {
              "internalType": "address",
              "name": "lender",
              "type": "address"
            },
            {
              "internalType": "bool",
              "name": "isRepaid",
              "type": "bool"
            }
          ],
          "internalType": "struct LendingBorrowing.LoanRequest[]",
          "name": "",
          "type": "tuple[]"
        }
      ],
      "stateMutability": "view",
      "type": "function",
      "constant": true
    },
    {
      "inputs": [
        {
          "internalType": "address",
          "name": "_borrower",
          "type": "address"
        }
      ],
      "name": "getFundedLoansByBorrower",
      "outputs": [
        {
          "components": [
            {
              "internalType": "uint256",
              "name": "loanId",
              "type": "uint256"
            },
            {
              "internalType": "address",
              "name": "borrower",
              "type": "address"
            },
            {
              "internalType": "uint256",
              "name": "amount",
              "type": "uint256"
            },
            {
              "internalType": "uint256",
              "name": "interest",
              "type": "uint256"
            },
            {
              "internalType": "bool",
              "name": "isActive",
              "type": "bool"
            },
            {
              "internalType": "address",
              "name": "lender",
              "type": "address"
            },
            {
              "internalType": "bool",
              "name": "isRepaid",
              "type": "bool"
            }
          ],
          "internalType": "struct LendingBorrowing.LoanRequest[]",
          "name": "",
          "type": "tuple[]"
        }
      ],
      "stateMutability": "view",
      "type": "function",
      "constant": true
    },
    {
      "inputs": [],
      "name": "getAllLoans",
      "outputs": [
        {
          "components": [
            {
              "internalType": "uint256",
              "name": "loanId",
              "type": "uint256"
            },
            {
              "internalType": "address",
              "name": "borrower",
              "type": "address"
            },
            {
              "internalType": "uint256",
              "name": "amount",
              "type": "uint256"
            },
            {
              "internalType": "uint256",
              "name": "interest",
              "type": "uint256"
            },
            {
              "internalType": "bool",
              "name": "isActive",
              "type": "bool"
            },
            {
              "internalType": "address",
              "name": "lender",
              "type": "address"
            },
            {
              "internalType": "bool",
              "name": "isRepaid",
              "type": "bool"
            }
          ],
          "internalType": "struct LendingBorrowing.LoanRequest[]",
          "name": "",
          "type": "tuple[]"
        }
      ],
      "stateMutability": "view",
      "type": "function",
      "constant": true
    }
  ],
  "bytecode": "0x60806040526000805534801561001457600080fd5b50610ea8806100246000396000f3fe60806040526004361061007b5760003560e01c8063aa452fa61161004e578063aa452fa6146100f7578063ab7b1c8914610117578063d1b332f41461012a578063d9dc630f1461015d5761007b565b806334d9289e14610080578063846b909a146100ab5780639772d7ee146100c0578063a5bfd16a146100e2575b600080fd5b34801561008c57600080fd5b5061009561017d565b6040516100a29190610d67565b60405180910390f35b6100be6100b9366004610b46565b610183565b005b3480156100cc57600080fd5b506100d56102e0565b6040516100a29190610b7f565b3480156100ee57600080fd5b506100d5610489565b34801561010357600080fd5b506100be610112366004610b5e565b6105c1565b6100be610125366004610b46565b6106cf565b34801561013657600080fd5b5061014a610145366004610b46565b61082d565b6040516100a29796959493929190610d94565b34801561016957600080fd5b506100d5610178366004610b18565b61087c565b60005481565b6000818152600160205260409020600481015460ff166101be5760405162461bcd60e51b81526004016101b590610c43565b60405180910390fd5b60018101546001600160a01b03166101e85760405162461bcd60e51b81526004016101b590610d02565b8060020154341461020b5760405162461bcd60e51b81526004016101b590610cd3565b600481015461010090046001600160a01b03161561023b5760405162461bcd60e51b81526004016101b590610c13565b600481018054610100600160a81b03191633610100021760ff1916905560018101546040516001600160a01b03909116906108fc34801591909102916000818181858888f19350505050158015610296573d6000803e3d6000fd5b507f567027d9aa89256c975e4bcd5e02580005533592e2fa5ed2dab60de95722ded88233836002015484600301546040516102d49493929190610d70565b60405180910390a15050565b6060600060015b600054811161032a5760008181526001602052604090206004015460ff1615610318578161031481610e41565b9250505b8061032281610e41565b9150506102e7565b5060008167ffffffffffffffff81111561035457634e487b7160e01b600052604160045260246000fd5b60405190808252806020026020018201604052801561038d57816020015b61037a610adc565b8152602001906001900390816103725790505b509050600060015b60005481116104805760008181526001602052604090206004015460ff161561046e57600081815260016020818152604092839020835160e08101855281548152928101546001600160a01b03908116928401929092526002810154938301939093526003830154606083015260049092015460ff80821615156080840152610100820490931660a0830152600160a81b9004909116151560c0820152835184908490811061045457634e487b7160e01b600052603260045260246000fd5b6020026020010181905250818061046a90610e41565b9250505b8061047881610e41565b915050610395565b50909250505090565b60606000805467ffffffffffffffff8111156104b557634e487b7160e01b600052604160045260246000fd5b6040519080825280602002602001820160405280156104ee57816020015b6104db610adc565b8152602001906001900390816104d35790505b50905060015b60005481116105bb57600081815260016020818152604092839020835160e08101855281548152818401546001600160a01b0390811693820193909352600282015494810194909452600381015460608501526004015460ff80821615156080860152610100820490921660a0850152600160a81b900416151560c0830152839061057f9084610e2a565b8151811061059d57634e487b7160e01b600052603260045260246000fd5b602002602001018190525080806105b390610e41565b9150506104f4565b50905090565b6000805490806105d083610e41565b90915550506040805160e081018252600080548083523360208085018281528587018981526060870189815260016080890181815260a08a0189815260c08b018a8152988a52958290528a892099518a55935190890180546001600160a01b0319166001600160a01b03928316179055915160028901555160038801559051600490960180549251945160ff1990931696151596909617610100600160a81b03191661010094909116939093029290921760ff60a81b1916600160a81b92151592909202919091179092555491517f68595dbe887ae7f496f2c88735019a8918919a1decfdee6bdb460480ab87decb926102d492909186908690610d70565b6000818152600160205260409020600481015461010090046001600160a01b031661070c5760405162461bcd60e51b81526004016101b590610c6f565b60018101546001600160a01b031633146107385760405162461bcd60e51b81526004016101b590610d30565b60006064826003015483600201546107509190610e0b565b61075a9190610deb565b82600201546107699190610dd3565b905080341461078a5760405162461bcd60e51b81526004016101b590610c9c565b60048201546040516001600160a01b0361010090920491909116903480156108fc02916000818181858888f193505050501580156107cc573d6000803e3d6000fd5b5060048201805460ff60a81b1916600160a81b179055600282015460038301546040517f553c9087bff5b534e499a66dac3fa9db2962cd252ea01165239755836ae5345e9261082092879233929190610d70565b60405180910390a1505050565b6001602081905260009182526040909120805491810154600282015460038301546004909301546001600160a01b0392831693919260ff80831692610100810490921691600160a81b90041687565b6060600060015b600054811161092157600081815260016020819052604090912001546001600160a01b0385811691161480156108d7575060008181526001602052604090206004015461010090046001600160a01b031615155b80156108fc5750600081815260016020526040902060040154600160a81b900460ff16155b1561090f578161090b81610e41565b9250505b8061091981610e41565b915050610883565b5060008167ffffffffffffffff81111561094b57634e487b7160e01b600052604160045260246000fd5b60405190808252806020026020018201604052801561098457816020015b610971610adc565b8152602001906001900390816109695790505b509050600060015b6000548111610ad257600081815260016020819052604090912001546001600160a01b0387811691161480156109e0575060008181526001602052604090206004015461010090046001600160a01b031615155b8015610a055750600081815260016020526040902060040154600160a81b900460ff16155b15610ac057600081815260016020818152604092839020835160e08101855281548152928101546001600160a01b03908116928401929092526002810154938301939093526003830154606083015260049092015460ff80821615156080840152610100820490931660a0830152600160a81b9004909116151560c08201528351849084908110610aa657634e487b7160e01b600052603260045260246000fd5b60200260200101819052508180610abc90610e41565b9250505b80610aca81610e41565b91505061098c565b5090949350505050565b6040805160e081018252600080825260208201819052918101829052606081018290526080810182905260a0810182905260c081019190915290565b600060208284031215610b29578081fd5b81356001600160a01b0381168114610b3f578182fd5b9392505050565b600060208284031215610b57578081fd5b5035919050565b60008060408385031215610b70578081fd5b50508035926020909101359150565b602080825282518282018190526000919060409081850190868401855b82811015610c0657815180518552868101516001600160a01b039081168887015286820151878701526060808301519087015260808083015115159087015260a0808301519091169086015260c09081015115159085015260e09093019290850190600101610b9c565b5091979650505050505050565b602080825260169082015275131bd85b881a5cc8185b1c9958591e48199d5b99195960521b604082015260600190565b6020808252601290820152714c6f616e206973206e6f742061637469766560701b604082015260600190565b602080825260139082015272131bd85b881b9bdd08199d5b991959081e595d606a1b604082015260600190565b6020808252601a908201527f496e636f72726563742072657061796d656e7420616d6f756e74000000000000604082015260600190565b602080825260159082015274125b98dbdc9c9958dd081b1bd85b88185b5bdd5b9d605a1b604082015260600190565b602080825260149082015273125b9d985b1a59081b1bd85b881c995c5d595cdd60621b604082015260600190565b60208082526017908201527f4f6e6c7920626f72726f7765722063616e207265706179000000000000000000604082015260600190565b90815260200190565b9384526001600160a01b039290921660208401526040830152606082015260800190565b9687526001600160a01b039586166020880152604087019490945260608601929092521515608085015290911660a0830152151560c082015260e00190565b60008219821115610de657610de6610e5c565b500190565b600082610e0657634e487b7160e01b81526012600452602481fd5b500490565b6000816000190483118215151615610e2557610e25610e5c565b500290565b600082821015610e3c57610e3c610e5c565b500390565b6000600019821415610e5557610e55610e5c565b5060010190565b634e487b7160e01b600052601160045260246000fdfea26469706673582212200c6b30a685e260fb73cd771c8990ce7b83282ad6fab84b179d62be2d470f9a9c64736f6c63430008000033",
  "immutableReferences": {},
  "source": "// SPDX-License-Identifier: MIT\r\npragma solidity ^0.8.0;\r\n\r\ncontract LendingBorrowing {\r\n\r\n    struct LoanRequest {\r\n        uint loanId;         // Loan ID in the struct\r\n        address borrower;\r\n        uint amount;\r\n        uint interest;\r\n        bool isActive;\r\n        address lender;\r\n        bool isRepaid;\r\n    }\r\n\r\n    uint public loanCounter = 0;\r\n    mapping(uint => LoanRequest) public loanRequests;\r\n\r\n    event LoanRequested(uint loanId, address borrower, uint amount, uint interest);\r\n    event LoanFunded(uint loanId, address lender, uint amount, uint interest);\r\n    event LoanRepaid(uint loanId, address borrower, uint amount, uint interest);\r\n\r\n    // Borrower requests a loan\r\n    function requestLoan(uint _amount, uint _interest) external {\r\n        loanCounter++;\r\n        loanRequests[loanCounter] = LoanRequest({\r\n            loanId: loanCounter,      // Store loanId in struct\r\n            borrower: msg.sender,\r\n            amount: _amount,\r\n            interest: _interest,\r\n            isActive: true,\r\n            lender: address(0),\r\n            isRepaid: false\r\n        });\r\n        \r\n        emit LoanRequested(loanCounter, msg.sender, _amount, _interest);\r\n    }\r\n\r\n    // Lender funds the loan request\r\n    function fundLoan(uint _loanId) external payable {\r\n        LoanRequest storage loan = loanRequests[_loanId];\r\n\r\n        require(loan.isActive, \"Loan is not active\");\r\n        require(loan.borrower != address(0), \"Invalid loan request\");\r\n        require(msg.value == loan.amount, \"Incorrect loan amount\");\r\n        require(loan.lender == address(0), \"Loan is already funded\");\r\n\r\n        loan.lender = msg.sender;\r\n        loan.isActive = false;\r\n\r\n        // Transfer loan amount to the borrower\r\n        payable(loan.borrower).transfer(msg.value);\r\n\r\n        emit LoanFunded(_loanId, msg.sender, loan.amount, loan.interest);\r\n    }\r\n\r\n    // Borrower repays the loan with interest\r\n    function repayLoan(uint _loanId) external payable {\r\n        LoanRequest storage loan = loanRequests[_loanId];\r\n\r\n        require(loan.lender != address(0), \"Loan not funded yet\");\r\n        require(msg.sender == loan.borrower, \"Only borrower can repay\");\r\n        \r\n        uint repaymentAmount = loan.amount + (loan.amount * loan.interest / 100);\r\n        require(msg.value == repaymentAmount, \"Incorrect repayment amount\");\r\n\r\n        // Transfer repayment amount (loan + interest) to the lender\r\n        payable(loan.lender).transfer(msg.value);\r\n        loan.isRepaid = true;\r\n\r\n        emit LoanRepaid(_loanId, msg.sender, loan.amount, loan.interest);\r\n    }\r\n\r\n    // Helper function to view active loan requests\r\n    function getActiveLoanRequests() external view returns (LoanRequest[] memory) {\r\n        uint activeCount = 0;\r\n\r\n        // Count active loans\r\n        for (uint i = 1; i <= loanCounter; i++) {\r\n            if (loanRequests[i].isActive) {\r\n                activeCount++;\r\n            }\r\n        }\r\n\r\n        // Create an array of active loans\r\n        LoanRequest[] memory activeLoans = new LoanRequest[](activeCount);\r\n        uint index = 0;\r\n        for (uint i = 1; i <= loanCounter; i++) {\r\n            if (loanRequests[i].isActive) {\r\n                activeLoans[index] = loanRequests[i];\r\n                index++;\r\n            }\r\n        }\r\n\r\n        return activeLoans;\r\n    }\r\n\r\n    // Helper function to view funded loans for a borrower\r\n    function getFundedLoansByBorrower(address _borrower) external view returns (LoanRequest[] memory) {\r\n        uint fundedCount = 0;\r\n\r\n        // Count funded loans for the borrower that are not yet repaid\r\n        for (uint i = 1; i <= loanCounter; i++) {\r\n            if (loanRequests[i].borrower == _borrower && loanRequests[i].lender != address(0) && !loanRequests[i].isRepaid) {\r\n                fundedCount++;\r\n            }\r\n        }\r\n\r\n        // Create an array for funded loans\r\n        LoanRequest[] memory fundedLoans = new LoanRequest[](fundedCount);\r\n        uint index = 0;\r\n\r\n        for (uint i = 1; i <= loanCounter; i++) {\r\n            if (loanRequests[i].borrower == _borrower && loanRequests[i].lender != address(0) && !loanRequests[i].isRepaid) {\r\n                fundedLoans[index] = loanRequests[i]; // Include loanId in the returned struct\r\n                index++;\r\n            }\r\n        }\r\n\r\n        return fundedLoans;\r\n    }\r\n\r\n    // New function to get all loans (funded, unfunded, repaid)\r\n    function getAllLoans() external view returns (LoanRequest[] memory) {\r\n        LoanRequest[] memory allLoans = new LoanRequest[](loanCounter);\r\n\r\n        // Populate the array with all loans\r\n        for (uint i = 1; i <= loanCounter; i++) {\r\n            allLoans[i - 1] = loanRequests[i];\r\n        }\r\n\r\n        return allLoans;\r\n    }\r\n}\r\n",
  "sourcePath": "C:\\andrewbie\\lend-borrow-dapp\\contracts\\LendingBorrowing.sol",
  "compiler": {
    "name": "solc",
    "version": "0.8.0+commit.c7dfd78e.Emscripten.clang"
  },
  "schemaVersion": "3.4.16",
  "updatedAt": "2024-09-07T05:54:34.176Z",
  "networkType": "ethereum",
  "devdoc": {
    "kind": "dev",
    "methods": {},
    "version": 1
  },
  "userdoc": {
    "kind": "user",
    "methods": {},
    "version": 1
  }
}